:020000020000FC
:040000000C94B101AA
:100044000C94A4020C94B1010F932F933F9300914D
:1000540032000F7D24FD00620093340000912C00D7
:10006400077F25FD086000932E0000910001077FA3
:1000740026FD086000930201009100010F7E27FD18
:1000840000610093020100910001006400930201E9
:1000940031E00E947401009100010F7B0093020182
:1000A4003F912F910F9108952F933F930F93DF93D7
:1000B400CF93DEB7CDB729850E94260032E30E9494
:1000C400740122950E94260032E30E947401CF91AC
:1000D400DF910F913F912F9108950F933F932F93A9
:1000E400DF93CF93DEB7CDB72985009100010F7D53
:1000F400009302012F930E9456002F91243018F48C
:1001040032E00E947E01CF91DF912F913F910F91B8
:1001140008950F932F93DF93CF93DEB7CDB7288540
:10012400009100010062009302012F930E94560087
:100134002F9100910102039500930102CF91DF9169
:100144002F910F9108950F931F93DF93CF93FF93F4
:10015400EF93DEB7CDB7FB85EA851191103029F016
:100164001F930E948B001F91F8CFEF91FF91CF91C5
:10017400DF911F910F9108950F931F93DF93CF93F6
:10018400DEB7CDB70885198511301CF011E00C9449
:10019400CE000F300CF00FE0109300020093010228
:1001A400113019F410EC0C94D80010E8010F0F93DF
:1001B4000E946F000F91CF91DF911F910F910895CD
:1001C4000F9301E00F930E946F000F91002700939B
:1001D4000002009301020F9108950F932F933F9310
:1001E40000913300006200933300009132000F7DD0
:1001F4000093340000912D00086000932D000091BD
:100204002C00077F00932E000091010108600093E9
:10021400010100910001077F009302010091010197
:10022400006100930101009100010F7E009302011F
:1002340000910101006200930101009100010F7D12
:1002440000930201009101010064009301010091F7
:1002540000010F7B009302013FE00E947E0135E024
:100264000E947E0120E30E94260035E00E947E0168
:1002740020E30E94260057E03FE00E947E015A9549
:10028400D9F720E30E94260032E30E94740120E2A1
:100294000E94260032E30E94740108E20F930E9438
:1002A4006F000F9108E00F930E946F000F9101E01F
:1002B4000F930E946F000F9132E00E947E0106E0CE
:1002C4000F930E946F000F910CE00F930E946F0038
:1002D4000F91002700930002009301023F912F9198
:1002E4000F9108950F933F9305E00A95F1F73A951E
:1002F400D9F73F910F9108950F931F933F93DF9385
:10030400CF930DEF309F012D0295007FD02F002D4C
:100314000295102F007F1F70C02FD12B2197F1F76A
:10032400CF91DF913F911F910F9108950F93FF9308
:10033400EF93BF93AF93DF93CF93DEB7CDB7EB8546
:10034400FC85AD85BE85059100300D93E1F7CF9115
:10035400DF91AF91BF91EF91FF910F91089507E85D
:1003640000937A0000E000937B0000E400937C009B
:100374000E94EF000E94DB0202E3002E00E0102E38
:100384000BE2202E02E0302E03EC402E00E0502E33
:100394000CE7602E01E0702E0DE30093890009E064
:1003A400009388000027009390000DE000938100E3
:1003B40002E000936F000DE30093990009E00093BD
:1003C400980000E0009390000DE000939100789471
:1003D40018D0442708B301FFFDCF4091020202E088
:1003E40008BB4395433009F440E04093020201D036
:1003F400F1CFE6DE403029F0413021F1423099F16D
:10040400089500E00F9300E00F930E94BE000F9147
:100414000F9102E00F9303E00F930E94A5000F9148
:100424000F9101E00F9300E00F930E94BE000F9123
:100434000F9102E00F930BEC0F930E94A5000F9114
:100444000F91089500E00F9300E00F930E94BE0007
:100454000F910F9102E00F9303E00F930E94A50008
:100464000F910F91089501E00F9300E00F930E9404
:10047400BE000F910F9102E00F930BEC0F930E94BB
:10048400A5000F910F9108950F931F93FF93EF937E
:10049400F2E0E3E0008131961081103019F000831E
:1004A400012FF9CFF2E0E3E00083EF91FF911F9178
:1004B4000F9108950F931F93FF93EF93F2E0EBECEA
:1004C400008131961081103019F00083012FF9CF8B
:1004D400F2E0EBEC0083EF91FF911F910F910895EF
:1004E4000F93FF93EF93DF93CF93F2E0E3E0D2E037
:1004F400C4E030810991019308810030D9F7308339
:10050400CF91DF91EF91FF910F9108950F93FF9396
:10051400EF93DF93CF93F2E0EBECD2E0CCEC3081BD
:100524000991019308810030D9F73083CF91DF918D
:10053400EF91FF910F910895D3DFE8DF0895A4DFD1
:10054400B9DF08950F9300913F000F930E94BD02FD
:10055400713021F0723031F00C94B8020E94A10283
:100564000C94B8020E949E020C94B8020F9100935E
:100574003F000F91189500917A00006400937A006F
:1005840000917A000074E1F78091780090917900ED
:100594008215930568F472E08615970548F474E0B3
:1005A4008415950528F473E08015910508F471E02D
:1005B40008950F9302E00F9303E00F9305E00F9368
:1005C40004EF0F930E9498010F910F910F910F91D7
:1005D40002E00F930BEC0F9306E00F9306E00F93EA
:1005E4000E9498010F910F910F910F910F9108950F
:1005F4004D6567616E20446F68656E792020202008
:1006040000004353433233303A20537072696E67AB
:080614002032303235200000D5
:00000001FF
