:020000020000FC
:100000000FEF00930A0104B900C001E258D0B9D043
:10001000002755D0B6D008E352D0BAD000274FD031
:10002000B0D001E24CD0ADD0002749D047C01AE291
:1000300058D015E156D01AE254D015E152D0A1D0D3
:10004000A0D01AE256D015E154D01AE252D015E1F0
:1000500050D01AE24ED015E14CD01AE24AD015E148
:1000600048D02CC008EF0F934CD00F910CED0F939C
:1000700048D00F9140E24F9344D04F914695D9F725
:100080001DC051E45F934ED05F919F933AD09F91F2
:1000900078D052E45F9346D05F919F9332D09F9186
:1000A00070D053E45F933ED05F919F932AD09F918D
:1000B00068D004C092E08CEB5AD000C0FFCF11276B
:1000C000222700FD106801FD106202FD186003FD8B
:1000D000126004FD286005FD226010930B0125B914
:1000E0000895012FECDF4DD0002700930A0104B9D9
:1000F0000895012FE4DF4CD0002700930A0104B9D2
:1001000008956F917F918F919F91192F107C19F015
:10011000192FE7DF02C0192FECDF9F938F937F9396
:100120006F930895FF90EF90DF903F919927F1E052
:10013000E4EC45914D32A1F0431711F03796F9CF19
:10014000992760E045914F3611F4990F91606395BE
:10015000663009F0F7CF31964491413009F4906C44
:100160003F93DF92EF92FF92092FA9DF0895F92FB5
:10017000E82F7591703019F07F93D4DFC2DF01D082
:1001800008950F930EE00BD00A95E9F70F910895AB
:100190000F9304E004D00A95E9F70F91089501D078
:1001A00008950F931F932F9308E00A9539F01FEFDE
:1001B0001A95D9F32FEF2A95D9F3FDCF2F911F91DF
:1001C0000F910895412E2E6F6F2E2E01422E6F2E0D
:1001D0002E6F2E02436F2E6F2E2E2E01442E2E2EAA
:1001E0002E2E6F01456F6F6F6F6F6F01462E6F6F11
:1001F0006F6F2E02476F6F2E2E6F6F02482E2E6F7D
:100200006F2E2E02492E6F2E2E6F2E014A2E2E2E6D
:100210002E2E6F024B2E2E2E2E6F6F024C6F2E6FD6
:100220002E6F2E014D6F6F6F6F6F6F024E6F6F2EBF
:100230002E2E2E014F2E6F6F6F6F2E01506F2E6F6F
:100240006F2E6F01516F2E6F6F2E6F02526F6F2ED8
:100250002E6F6F01532E2E2E2E6F6F01542E2E6F88
:100260006F2E2E02556F2E2E2E2E2E01566F2E6FB4
:100270002E6F2E02576F2E6F2E2E2E02576F6F2E5F
:100280002E2E2E02592E2E6F6F2E2E025A6F2E2ECC
:100290002E2E2E022D6F2E2E2E6F6F0143534332C2
:1002A00033300000414C4C00524F41445300000099
:1002B0004C45414400000000544F0000555649434E
:0402C000000000003A
:00000001FF
